:020000040800F2
:108000000000022091360108B5930008B9930008DA
:10801000BD930008C1930008C5930008000000004C
:10802000000000000000000000000000C9930008EC
:10803000CD93000800000000D1930008D5930008FC
:10804000DD360108DD360108DD360108DD360108C0
:10805000DD360108DD360108DD360108DD360108B0
:10806000DD360108DD360108DD360108DD360108A0
:10807000DD360108DD3601088DA50008DD36010872
:10808000DD360108DD360108DD360108DD36010880
:10809000DD360108DD360108DD360108DD36010870
:1080A000DD360108DD360108DD360108DD36010860
:1080B000DD360108DD360108DD360108DD36010850
:1080C000DD360108DD360108DD360108DD36010840
:1080D000DD360108DD360108DD360108DD36010830
:1080E000DD360108DD360108DD360108DD36010820
:1080F000DD360108DD360108DD360108DD36010810
:10810000DD360108DD360108DD360108DD360108FF
:10811000DD360108DD360108DD360108DD360108EF
:10812000DD360108DD360108DD360108DD360108DF
:10813000DD360108DD360108DD360108DD360108CF
:10814000DD360108DD360108DD360108DD360108BF
:10815000DD360108DD360108DD360108DD360108AF
:10816000DD360108DD360108DD360108DD3601089F
:10817000DD360108DD360108DD360108DD3601088F
:10818000DD360108DD3601080000000000000000B7
:10819000844641EA000313F003036DD1403A41D312
:1081A00051F8043B40F8043B51F8043B40F8043BD1
:1081B00051F8043B40F8043B51F8043B40F8043BC1
:1081C00051F8043B40F8043B51F8043B40F8043BB1
:1081D00051F8043B40F8043B51F8043B40F8043BA1
:1081E00051F8043B40F8043B51F8043B40F8043B91
:1081F00051F8043B40F8043B51F8043B40F8043B81
:1082000051F8043B40F8043B51F8043B40F8043B70
:1082100051F8043B40F8043B51F8043B40F8043B60
:10822000403ABDD2303211D351F8043B40F8043B00
:1082300051F8043B40F8043B51F8043B40F8043B40
:1082400051F8043B40F8043B103AEDD20C3205D310
:1082500051F8043B40F8043B043AF9D2043208D008
:10826000D2071CBF11F8013B00F8013B01D30B887A
:1082700003806046704700BF082A13D38B078DD058
:1082800010F003038AD0C3F10403D21ADB071CBF2A
:1082900011F8013B00F8013B80D331F8023B20F894
:1082A000023B7BE7043AD9D3013A11F8013B00F8CD
:1082B000013BF9D20B7803704B7843708B78837055
:1082C000604670472DE9F04F83B000F1D005019072
:1082D00002F0C8FB019BB74C03F13A00002102F009
:1082E00079F9284602F0AAFA0198002180F8D11005
:1082F00000F154067F2721467C223046FFF748FFD5
:1083000033466FEA060813F8012BA844AB4208F085
:1083100007014ED049B3012921D002291BD00329DE
:1083200015D004290FD0052909D0062903D013F848
:10833000019B4A4492B213F801AB524492B213F833
:1083400001BB5A4492B213F801CB624492B213F8C3
:1083500001EB724492B213F8010B024492B213F88B
:10836000018B4244AB4292B223D0194693F802905B
:1083700011F801AB93F803E091F800B093F804C052
:1083800093F80580987952441BFA82F219FA82F127
:108390001EFA81F908331CFA89FA18FA8AFE13F8D2
:1083A00001BC10FA8EF01BFA80FCAB421FFA8CF273
:1083B000DBD16FEA0208B4F87C30B4F87E101FFA03
:1083C00088F2934200F006817B48803C844207F1AA
:1083D000FF3790D10198794B794A7A4942654FF03D
:1083E000000901248165C365036643668366C3662D
:1083F000036743678367C367C0F88030C0F8843081
:10840000C0F88830C0F88C30A0F8249280F89090A2
:1084100080F8919080F8D1400AF052FAF3200AF0E7
:108420005FFA019F6848B7F824124FEAC11A0AF1AF
:10843000006B0BF58142824200F29181002900F02D
:108440009181624FDFF888810BF580445744D04416
:10845000C4EB0609204659F804100AF0B7FA04F1F3
:108460007C0B043404F1040A59F8041020460AF085
:10847000ADFA59F80A1050460AF0A8FA04F10800BB
:1084800059F800100AF0A2FA04F10C0059F8001093
:108490000AF09CFA04F1100059F800100AF096FA5C
:1084A00004F1140059F800100AF090FA04F11800D1
:1084B00059F800100AF08AFA04F11C0059F800106B
:1084C0000AF084FA04F1200059F800100AF07EFA4C
:1084D00004F12400283459F800100AF077FA5C45BA
:1084E000C0D13346F64313F8012B2E44AB4206F0BD
:1084F00007014CD049B3012921D002291BD00329FF
:1085000015D004290FD0052909D0062903D013F866
:1085100001EB724492B213F801CB624492B213F8A9
:10852000010B024492B213F8019B4A4492B213F831
:1085300001BB5A4492B213F801AB524492B213F801
:10854000014B2244AB4292B221D0194693F802E08B
:1085500011F8019BDE7891F800C093F804B05879C7
:108560009C794A441CFA82FA1EFA8AF216FA82F1BF
:1085700008331BFA81F610FA86FE13F8010C14FA80
:108580008EF410FA84F9AB421FFA89F2DDD1D5439B
:10859000A9B240460AF03AFA019B3846B3F82412D1
:1085A0000AF034FA019FB7F8248208F10102A7F813
:1085B000242216E0807F0008803F0008FD4A013F2A
:1085C0000A5785421F85A8C2FF7F00087E40000829
:1085D0007C400008B9427FF4F7AE019E791CA6F8F2
:1085E00024120198019F90F89140022C4FF0000551
:1085F00084BF022480F8914007F1D40AC7F81852CA
:10860000C7F81C5207F5A07CD34600224BF8042B78
:108610000AF1240A4AF8202CCBF804204AF8182C36
:108620004AF8142C4AF8102C4AF80C2C4AF8082C5A
:108630004AF8042CD445E7D1019B03F5D678CCEB5E
:10864000080E4CF8042BAEF10401E045C1F382069C
:1086500039D016B3012E1AD0022E15D0032E10D009
:10866000042E0BD0052E06D0062E18BF4CF8042B76
:1086700000204CF8040B00244CF8044B00254CF867
:10868000045B00274CF8047B00224CF8042B4FF0CD
:1086900000094CF8049BE04515D0E34600234BF855
:1086A000043B0CF1200C4CF81C3CCBF804304CF88B
:1086B000143C4CF8103C4CF80C3C4CF8083C4CF882
:1086C000043CE045E9D101994FF0000C01F5067634
:1086D000C8EB060A48F804CBAAF104004645C0F3EB
:1086E000820439D014B3012C1BD0022C16D0032CD9
:1086F00011D0042C0BD0052C06D0062C18BF48F83E
:1087000004CB002548F8045B002748F8047B4FF0B1
:10871000000E48F804EB002248F8042B002348F828
:10872000043B002148F8041B464515D0C1460024EF
:1087300049F8044B08F1200848F81C4CC9F80440DB
:1087400048F8144C48F8104C48F80C4C48F8084CC1
:1087500048F8044C4645E9D103B0BDE8F08F019BD1
:10876000A3F82492082002210AF0F4F8DFF8108020
:10877000014F024C6CE600BF7E400008004000083C
:108780007C4000082DE9F84F06460AF099F8F320DE
:108790000AF0A6F8B6F824226549D30103F1006473
:1087A00004F58140884206F1540940F2B580002565
:1087B000A6F82452082002210AF0CCF85D4FDFF819
:1087C0007C815D4CC4EB0905204629590AF0FEF86E
:1087D00004F17C0A043404F1040B295920460AF000
:1087E000F5F855F80B1058460AF0F0F804F10800B7
:1087F00029580AF0EBF804F10C0029580AF0E6F8C1
:1088000004F1100029580AF0E1F804F11400295885
:108810000AF0DCF804F1180029580AF0D7F804F13E
:108820001C0029580AF0D2F804F1200029580AF057
:10883000CDF804F12400283429580AF0C7F854452B
:10884000C9D14B4606F1D00013F8012B6FEA090C91
:10885000844483420CF007014DD049B3012921D053
:1088600002291BD0032915D004290FD0052909D0CE
:10887000062903D013F801EB724492B213F8019B5E
:108880004A4492B213F8015B2A4492B213F801AB46
:10889000524492B213F801BB5A4492B213F8014BFE
:1088A000224492B213F801CB6244834292B222D0A6
:1088B000194693F802B011F801AB93F803E091F870
:1088C00000901D7993F805C09C79524419FA82F200
:1088D0001BFA82F11EFA81FB083315FA8BF51CFA9C
:1088E00085FA13F801EC14FA8AF41EFA84F983422B
:1088F0001FFA89F2DCD1D34399B238460AF086F8E0
:108900004046B6F824120AF081F8B6F82402471C53
:10891000A6F82472BDE8F88F002A3FF44BAFDFF8C9
:108920001C80044F04F5804498441F444AE700BF6C
:10893000FF7F00087C400008004000087E400008DF
:108940002DE9F041044602F03DF86378774AD05CA7
:1089500003280ED8DFE800F002C9A97404EB430233
:1089600004EB8300518804EE101ABBEEC84A80ED78
:10897000354A04F5A077002697ED005A17ED1B7ACB
:10898000DFED6B7A77EE456A3C46A6EEA75A0936CC
:1089900024371B2EA4EC015A14ED1B0A17ED086AAC
:1089A00070EE460A2546A0EEA76AA5EC016A17ED0F
:1089B000062A57ED214A94ED011A55ED1B5A57ED41
:1089C000053A17ED047A17ED030A57ED202A17ED43
:1089D0001F4A57ED1E6A57ED1D0A34EEC23A75EE76
:1089E000C11AA3EE272AA1EEA71A57ED025A07EDE6
:1089F000062A57ED1C4A17ED012A07ED071A32EE39
:108A0000E35A34EE476A36EEC01A70EEE51A74EE99
:108A1000C22AE5EE273AA6EE277AA1EE270AE1EE72
:108A2000A75AA2EEA72A47ED053A07ED047A07ED0B
:108A3000030A47ED025A07ED012A9DD1BDE8F081F6
:108A400004EB430104EB83064D88DFED3A7A96EDA3
:108A5000351A9FED397AD6ED6B5A9FED386ADFED06
:108A6000386A05EE105AB8EE450AF0EE414A60EE5B
:108A7000270AB6EE002AD0EE874AA4EE821A71EEDB
:108A8000652A86ED351AF5EEC02AF1EE10FAC8BF58
:108A9000F0EE466A36EE813A73EE023ABDEEE34AF4
:108AA000F8EEC47AC6ED6B7A63E704EB43079FEDFB
:108AB000255AB7F80280DFED246A07EE108AB8EE77
:108AC000476ABFEE000AA6EE050A60EE000AB5EEA0
:108AD000C00A20EEA01AF1EE10FA61EE263A1DD47B
:108AE00004EB8303C3ED353A43E704EB430CDFEDBE
:108AF000155ABCF802E0DFED141A04EE90EAB8EE65
:108B0000642AFFEE002AE2EE252A22EEA23AF5EED2
:108B1000C02AF1EE10FA63EE213AE1D5F1EE633AA4
:108B200004EB8303C3ED353A23E700BF00000020C8
:108B30000AD7233C00007042000080379A9999BE02
:108B40009A99993E0000003833335340F8B50446F3
:108B50000D461646FFF7F4FEB4F84070D4F8400115
:108B6000D4F84411D4F85021D4F86431AB6105EE47
:108B7000907A28606960EA6094ED1A7A9FEDF86A4D
:108B8000D4ED536AD4ED527AB8EE650AA0EE467A77
:108B9000E6EE877AF5EEC07AF1EE10FA00F1268261
:108BA000DFEDF00AF4EE607AF1EE10FAC8BFF0EEF5
:108BB000607AB4F84200C5ED027A01EE100AD4EDF5
:108BC0001B1A9FEDE72AD4ED562A94ED553AF8EE9C
:108BD000413AE3EEC21AA2EEA13AB5EEC03AF1EE86
:108BE00010FA00F120829FEDDF4AB4EE443AF1EE34
:108BF00010FACCBFF0EE444AF0EE434A95ED047A09
:108C00009FEDD95AB4F84410D4ED586AD4ED577A90
:108C10009FEDD36A34EEC70A05EE901AA0EE057AEE
:108C2000F8EE650A85ED047A94ED1C1AA0EEC61ADA
:108C3000E6EE817AF5EEC07AF1EE10FA00F1F081FD
:108C4000DFEDC81AF4EE617AF1EE10FAC8BFF0EE6B
:108C5000617AB4F84620C5ED057A02EE102AD4ED0B
:108C60001D2A9FEDBF3AD4ED5B3A94ED5A4AF8EED7
:108C7000424AE4EEC32AA3EEA24AB5EEC04AF1EEA0
:108C800010FA00F1CA819FEDB77AB4EE474AF1EECF
:108C900010FACCBFB0EE470AB0EE440AD5ED070A91
:108CA0009FEDB15AB4F84830D4ED5D6AD4ED5C7AEA
:108CB0009FEDAB6A30EE601A05EE903AE1EE050AE0
:108CC000F8EE651AC5ED070A94ED1E2AA1EEC62A34
:108CD000E6EE827AF5EEC07AF1EE10FA00F19A81B2
:108CE000DFEDA22AF4EE627AF1EE10FAC8BFF0EEE0
:108CF000627AB4F84C70C5ED087A03EE107AD4EDC0
:108D0000203A9FED974AD4ED624A94ED610AB8EE9D
:108D1000437AE7EE443AA4EEA30AB5EEC00AF1EEB8
:108D200010FA00F17481DFED8F0AB4EE600AF1EE03
:108D300010FACCBFB0EE601AB0EE401AD5ED0A1AA8
:108D40009FED895AB4F85000D4ED646AD4ED637A8B
:108D50009FED836A31EE612A05EE900AE2EE051A74
:108D6000F8EE652AC5ED0A1A94ED223AA2EEC63A4B
:108D7000E6EE837AF5EEC07AF1EE10FA00F1448166
:108D8000DFED783AF4EE637AF1EE10FAC8BFF0EE58
:108D9000637AB4F84A10C5ED0B7A04EE101AD4EDDC
:108DA0001F4A9FED6F0A94ED667AD4ED651AF8EECE
:108DB000440AE0EEC04AE7EE241AF5EEC01AF1EEDE
:108DC00010FA00F11E819FED671AF4EE411AF1EEE0
:108DD00010FAC8BFF0EE411AB4F84E20C5ED0C1AD7
:108DE00005EE102A94ED212A9FED5D6AD4ED686AA4
:108DF000D4ED672AF8EE455AA5EEC62AE6EE822A99
:108E0000F5EEC02AF1EE10FA00F1F8809FED553A28
:108E1000F4EE432AF1EE10FACCBFF0EE433AF0EE56
:108E2000623A95ED0D4A9FED520AB4F852C094EDA6
:108E30006A1AD4ED697ADFED4A0A73EEC44A07EE86
:108E400010CAA4EE804AF8EE471A85ED0D4A94ED5B
:108E5000235AA1EEE05AE1EE057AF5EEC07AF1EE82
:108E600010FA00F1C880B0EE002AF4EE427AF1EE7A
:108E700010FACCBFF0EE422AF0EE672A638F94ED31
:108E8000150AD4ED163A95ED124A94ED866ADFED97
:108E9000386ADFED385A03EE103ABBEEC83A32EECC
:108EA000C47AA3EE830AA7EE264A70EE460A85ED41
:108EB000124AF4EEE50AF1EE10FA0CD49FED2E1AE8
:108EC000F4EEC10AF1EE10FADEBF9FED2C0AA0EE1F
:108ED000806AB0EE460AA58FDFED211A94ED182ABC
:108EE000D4ED602AE78F9FED263AD4ED875A94EDB2
:108EF000794A84ED860A07EE905AF8EE676A62EEC8
:108F0000833AA6EEE12A002007EE907AB0EE657A69
:108F1000B3EE036A93EE827A34EE061AB8EE672A4D
:108F2000B7EE004AB0EE443AD4ED5F4A9FED155AD1
:108F3000A2EE613A31EE000AF6EE002AE7EE225A7E
:108F4000A4EE850AB5EEC03AF1EE10FAC4ED875AE8
:108F5000F0EE431AC6ED025A86ED010A49D419E033
:108F6000000080373BDF7F3FCDCC4C3D52B87E3F89
:108F70000AD7233CCDCCCCBECDCCCC3ECDCCCC3D49
:108F800000004642CA261B3F000070C2000070422B
:108F900000000000B4EEC43AF1EE10FAC8BFF0EEE3
:108FA000441AC6ED031A5FED084AF4EEE45AF1EEF6
:108FB00010FA06D45FED0B4AF4EEE45AF1EE10FA23
:108FC00001DDC6ED024A94F8D31094F8D220317036
:108FD00004F1D00084F8D32001F04CFC84F8D200D6
:108FE00004F13A00BDE8F84001F0DEBB5FED187A0D
:108FF000DFE5F060D7E75FED1A2A3FE75FED1C3A47
:109000000FE75FED1D1AE7E65FED1F7AC1E61FED82
:10901000201A93E65FED227A6BE61FED230A3DE608
:109020005FED257A15E65FED264AE7E52DE9F04389
:1090300089B004460E46D148D149904604AAFFF7AC
:1090400085FDD04A9DF8103092F8950040EA030162
:109050008DF81010B8F1000F00F08381DFF84CC3D9
:10906000DFF84CE39CED006ADEED006AC64DC74AAE
:109070004FEA88070023E05E9FEDC55ADFEDC55A31
:109080009FEDC54ADFEDC53A9FEDC23ADFEDC22A3A
:1090900007EE100AB8EEC70A04EB030960EE050AF2
:1090A000F0EE464AB9F90210D0EEA04A043307EEBA
:1090B000901AF5EEC04AB8EEE71AF1EE10FAD8BFF2
:1090C000B0EE654A61EE051AA4EE246AB0EE662A97
:1090D00091EEA12AB4EEE56AF1EE10FAB5EEC02ADF
:1090E00094BF26EE234AB7EE004AF1EE10FAD8BF3D
:1090F000F0EE432AE2EE826ADFEDA85AF4EEC36A8C
:10910000F1EE10FAB7EE005A98BF26EEA55A24EEFB
:10911000207A25EE214ABB42A2EC017AA5EC014A55
:10912000A9D1DFF884929E4DCDF80880CDF800904B
:10913000019504A98CED006A9148934A934BCEEDBA
:10914000006A05F0BFF92C46CC46FCEC016AF4EC51
:10915000013A9FED946AB6EE000A26EE801A63EE9D
:10916000801AF3EE0B7AB2EE022AB0EE673AF0EE16
:10917000675AA1EE013A04233A1F61EE022AE1EE9A
:10918000A15A9F42C2F3800061EE824AF0EE670A64
:10919000B0EE677AE1EE220AA1EEA47A61EE036AEC
:1091A00061EEA53A86EEA01AC3EE871A21EE063AC2
:1091B00061EE862AFDEEC35AFDEEE24A15EE908A74
:1091C00008F30F0114EE902A02F30F087180A6F83D
:1091D000008000F0C380E0B3DCED000A94ED005A9B
:1091E00060EE806A25EE000AB0EE677AB0EE671A8C
:1091F00026EE824AA6EEA67A08239F4220EE022A95
:10920000A0EE001A05EB030409EB030CF0EE673A3D
:10921000E6EE843AE0EE027A26EE873A60EE012A24
:10922000C3EE235AC2EEA77A65EE864A27EE866A17
:10923000FDEEE40ABDEEC65A10EE905A05F30F0E8D
:1092400015EE100A00F30F00A6F806E0B08000F05B
:109250008580E146B9EC010ADCED016A94ED014A32
:109260009FED505AB6EE007A2146B1EC012A60EE2D
:10927000075AF2EE022AF3EE0B7A22EE076A25EE87
:10928000A23AF0EE670A26EE870A66EE223A24EE4C
:10929000077AE5EE830A06EB03081A1DB0EE671A9B
:1092A000F0EE671AA5EEA51AB51809F1040CE6EE62
:1092B000061A0C1DB0EE674A60EE226A67EE224A7B
:1092C000A6EE234AB0EE672AF0EE672AA0EE002A47
:1092D000E7EE072AB0EE603AF0EE670AE0EE260A03
:1092E000E7EE247A65EE815A26EE216AF0EE443AE2
:1092F00020EE020A27EE227A85EE831AC6EE231AA2
:10930000C0EE206AC7EE277A61EE054A21EE852A73
:1093100066EE852ABDEEE43A27EE855AFDEEC23AA6
:1093200013EE101A01F30F0E13EE909A09F30F00CB
:10933000A8F802E0FDEEE20AF052BDEEC54A08339D
:109340009F4210EE901A01F30F0914EE108A08F3F1
:109350000F01A5F80290B1527FF47BAF09B0BDE8D0
:10936000F083114A0E4BCDF808808DE80C0004A95B
:109370000348054A054B05F0A5F8EFE7B0010020CA
:109380007C040020D8030020D4BF01202CC201207F
:109390000000003817B7D138CDCCCC3D00401C467A
:1093A00014C0012000000047E8C1012028C20120AC
:1093B00078040020704700BFFEE700BFFEE700BF53
:1093C000FEE700BFFEE700BF704700BF704700BF69
:1093D000704700BF10B5074C074800F083F823889A
:1093E0009B0605D5A1880448C9B200F00BFCA080FB
:1093F00010BD00BF00100140D803002010B582B09E
:1094000001A8012101F0D4FB18481949194C04F0B6
:109410007BFE19491548032204F032FF1748FEF776
:1094200051FF20461149154A00F03AF80022134630
:1094300013484FF4FA4101F019F810B9042384F8E5
:1094400094300F480F4901F03DF810B9042084F81A
:1094500094000A4991F8D12012B10B4801F0AAF901
:1094600001A801F0ADFB02B010BD00BF7C040020DC
:1094700000000010D8030020107AFF1FB001002068
:1094800054C001202D900008D0BF012008B5FFF77F
:10949000B5FF024800F056FBFBE700BFD8030020F1
:1094A00070B504468C300D46164601F0EFF904F114
:1094B0008F0001F051FB0023C4F89C50C4F8986061
:1094C00084F8943096F8902005F5DC30111C18BF14
:1094D000012180F8F21105F5DD3C96F891408CF8F9
:1094E000504170BDF8B5A64D2B680446591C8F300D
:1094F000296001F04FFB94F88F10802900F08E80D6
:10950000002978D1D4F89070002F76D02E6840F6DC
:10951000B73CF21B624570D9D4F89810D1ED536A6C
:10952000F8EE087AF4EEE76AF1EE10FA40F13281D3
:1095300091ED567AB4EEE77AF1EE10FA40F12A8115
:1095400091ED580AB4EEE70AF1EE10FA40F12281EB
:10955000D1ED5B0AF4EEE70AF1EE10FA40F11A8160
:10956000D1ED5D1A91ED621AF4EEE71AF1EE10FA00
:1095700040F11281B4EEE71AF1EE10FA40F10C81DD
:1095800091ED646AB4EEE76AF1EE10FA40F10481FD
:1095900091ED662AF8EE082AB4EEE22AF1EE10FA0E
:1095A00040F1FA8091ED683AB4EEE23AF1EE10FA49
:1095B00040F1F280D1ED6A3AF4EEE23AF1EE10FABF
:1095C00040F1EA80D4F8883004F1040C0CEBC301BC
:1095D000581C4FF0040E0CF833E0002200F00F0688
:1095E00001274F804A60C4F888602B6894F88F1078
:1095F000C4F8902023607F2928D0296894F89470BB
:1096000001F07F06402E94BF00260126042F00F2B1
:109610006081DFE807F052A697388700D4F88830D9
:10962000201D00EBC3025E1C0021042706F00F067C
:1096300000F8337051805160C4F8886028682B6846
:10964000C4F89030206094F88F1059E7D4F8903027
:10965000002BD2D02E68D4F8882004F1040C701CA2
:109660000CEBC201571CC31A07F00F0604204FF081
:10967000000E0CF832004B60A1F802E0C4F88860DC
:109680002A682260B9E7D4F89C702E682A6807F52A
:10969000DD3CC2F301259CF850E1AE4503D3F1B2A5
:1096A000802900F21F81002384F88C3084F88D30EB
:1096B00084F88E3007F5DC3724E0D4F89C50DFEDD9
:1096C000315A314E05F5DC3705F5DD3C97F8F321CD
:1096D00084F88C20DCED407A27EEA50ABDEEC07A36
:1096E00017EE103A36F813E084F88DE0DCED410A0D
:1096F00020EEA51AFDEEC11A11EE900A36F81010F0
:1097000084F88E1097F8F1513DB1FF22012684F8BC
:109710008C6084F88D2084F88E2004F18C0001F098
:109720003FF9F8BD84F88C60002E00F0D780FF254B
:1097300084F88D500020D4F89C3084F88E0003F516
:10974000DC37DFE7D4F89C5086F0010C002276422B
:1097500005F5DC3784F88CC084F88E6084F88D20A1
:10976000D0E7D4F89C3086F0010E7042002103F55A
:10977000DC3784F88CE084F88D0084F88E10C1E723
:1097800070C201200000004468A10608CDCC4C3F07
:10979000CDCC4C3E91ED621AB0EE084AB4EEC41A3C
:1097A000F1EE10FA7FF729AFD1ED644AF4EEC44A26
:1097B000F1EE10FA7FF721AF91ED665AB4EEC45A7C
:1097C000F1EE10FA7FF719AFD1ED685AF4EEC45AF2
:1097D000F1EE10FA7FF711AFD1ED6A7AF4EEC47AA8
:1097E000F1EE10FA7FF709AF1FED180A91ED657AD7
:1097F000B4EEC07AF1EE10FA7FF7FFAED1ED670A52
:10980000F4EEC00AF1EE10FA7FF7F7AE91ED691AA7
:10981000B4EEC01AF1EE10FA7FF7EFAEF8EE081AC8
:10982000F4EEE16AF1EE10FA34D5D1ED566AF4EEB9
:10983000E16AF1EE10FA2DD591ED586AB8EE082ADA
:10984000B4EEC26AF1EE10FA24D5D1ED5B2AF4EE43
:10985000C22AF1EE10FA1DD591ED5D3AB4EEC23A8E
:10986000F1EE10FA16D55FED363A91ED574AB4EEA7
:10987000E34AF1EE10FA0DD5D1ED524AF4EEE34A87
:10988000F1EE10FA06D591ED5C5AB4EEE35AF1EE22
:1098900010FA2ED4D4F8883004F1040C581C0CEBC8
:1098A000C302042100F00F004FF0030E0CF8331038
:1098B0000026A2F802E0566094F88F10C4F88800E1
:1098C0002B68236000227F29C4F890207FF495AE96
:1098D000BCE6D4F89C7007F5DC3713E784F88D609C
:1098E000FF2028E70120FF2384F88C0084F88D30C6
:1098F000DEE6D4F8883004F1040C5F1C0CEBC302E4
:10990000042107F00F004FF0020ECFE7D0F8983097
:10991000DFED1A7A5A8F93ED887ADFED196A06EE39
:10992000102AF1EE470AB8EE460AF0EE605AE0EE71
:10993000275A10B5F4EEE65AF1EE10FA044619DD96
:10994000DFED101AF4EEE15AF1EE10FA12D5B3EE93
:10995000082AC2EE252A1846B2EE083AA0EEA23A2C
:10996000C3ED162A83ED153AFEF70CFF002184F8AB
:10997000941010BD042084F8940010BD00008037BE
:10998000CDCCCCBECDCCCCBD38B54B880446032B5A
:1099900021D8DFE803F03B372102D0F89C20674D47
:1099A000D0F8980002F5DD3C9CF850114A1C85FB6C
:1099B000025E0EEB4E03D51AE9B28CF8501180F816
:1099C0009110D4F89800FEF7DDFE0020032284F801
:1099D000950084F8942038BDD0F89C30D0F8985089
:1099E00003F5DC3C9CF8F21181F001008CF8F201E7
:1099F00085F89000D4F89800FEF7C4FE002284F8A1
:109A0000952038BD012380F8943038BD90F89450EB
:109A1000012D06D0022D00F08D80012180F89510D7
:109A200038BDD0F89800DFED467A828FC38FB0F84A
:109A30004250B0F840C0B0F8441001EE902A02EE57
:109A4000103AB0F84620B0F8483003EE105AB0F89B
:109A50004A5002EE90CA03EE901A04EE102AB0F8B3
:109A60004C10B0F84EC0B0F8502004EE903A05EE1D
:109A7000105AB0F85230458F05EE901A06EE10CA13
:109A800006EE902A07EE103A01EE105AB8EE610A7F
:109A9000F8EE420AF8EE622AB8EE433AF8EE633A7C
:109AA000B8EE444AF8EE644AB8EE455AF8EE655A04
:109AB000B8EE466AF8EE666AB8EE477AB8EE411A32
:109AC00060EE271A20EEA72A22EEA70A63EE270AE5
:109AD00063EEA72A24EE273A64EEA73A25EE274A3A
:109AE00065EEA74A26EE275A66EEA75A27EE276AA2
:109AF00061EE277A0221C0ED181A80ED192A80ED57
:109B00001A0AC0ED1B0AC0ED1C2A80ED1D3AC0EDFB
:109B10001E3A80ED1F4AC0ED204A80ED215AC0ED6B
:109B2000225A80ED236AC0ED887AC0ED177A84F856
:109B3000941038BDBDE83840FFF7E8BE565555557E
:109B40000000803730B5D0F88820D0F88430044643
:109B5000D01A83B0020718BF6D4607D11FE0D4F8B2
:109B60008820D4F88430D11A0B0718D0D4F8843068
:109B700004EBC30101F1040C9CE8030085E8030039
:109B80009DF80020581C00F00F03042AC4F884300C
:109B9000E5D101990020D1B184F89500DFE794F870
:109BA0009450032D18D0164922680868831AB3F51B
:109BB000487F01D9042D1ED008681149C2EB000C62
:109BC000BCF57A7F01D90A68226003B030BD204617
:109BD0006946FFF7D9FEC2E7094B25681868411BA3
:109BE000B1F57A6FF1D91A6822604FF0000C84F851
:109BF00094C003B030BD002584F89450DCE700BF6A
:109C000070C2012008B54B1101F01F01042B00F2B6
:109C1000C280DFE803F009211115030031BB0122E6
:109C200080F89420084608BDD0F8983003EB410135
:109C30004A88110A084608BDF1B990F89510F1E775
:109C4000D0F89C00003100F5DC3C18BF01218CF8F5
:109C5000F1110021084608BDD0F8982002EB410020
:109C6000B0F83AC04FEA1C21084608BD012908D0C7
:109C7000FFF74CFE0021D5E7D0F8983093F8D210CA
:109C8000D0E7D0F89810DFED457A8A8FCB8FB1F806
:109C900040C001EE902AB1F8422002EE103A02EEE6
:109CA00090CAB1F84430B1F846C003EE102AB1F8BA
:109CB000482003EE903A04EE10CAB1F84A30B1F8E9
:109CC0004CC004EE902AB1F84E2005EE103A05EE95
:109CD00090CAB1F85030B1F852C006EE102A4A8F3F
:109CE00006EE903A07EE10CA01EE102AB8EE610AAD
:109CF000F8EE420AF8EE622AB8EE433AF8EE633A1A
:109D0000B8EE444AF8EE644AB8EE455AF8EE655AA1
:109D1000B8EE466AF8EE666AB8EE477AB8EE411ACF
:109D200060EE271A20EEA72A22EEA70A63EE270A82
:109D300063EEA72A24EE273A64EEA73A25EE274AD7
:109D400065EEA74A26EE275A66EEA75A27EE276A3F
:109D500061EE277A0223C1ED181A81ED192A81EDEF
:109D60001A0AC1ED1B0AC1ED1C2A81ED1D3AC1ED95
:109D70001E3A81ED1F4AC1ED204A81ED215AC1ED05
:109D8000225A81ED236AC1ED887AC1ED177A00214C
:109D900080F8943046E7002144E700BF0000803798
:109DA0002DE9F0412A4CDFF8AC8082B00620012179
:109DB00009F038F902274FF44063012500262046B8
:109DC000694600938DF804708DF805508DF80650A3
:109DD0008DF8076008F03AFE20460A21042208F0B8
:109DE00091FF20460B21042208F08CFF4FF47042B3
:109DF0002046694600928DF804708DF805708DF844
:109E000006608DF80760402708F020FE694640464E
:109E1000009708F01BFE20460C21052208F072FF77
:109E200020460D21052208F06DFF20460F21052256
:109E300008F068FF20460E21052208F063FF404627
:109E40000621052208F05EFF284602B0BDE8F08139
:109E50000004024000080240F0B5154C85B0012115
:109E60004FF4800009F0ECF8204608F063FF04A9E5
:109E7000104B41F8103D4FF480624FF4804C204667
:109E8000694600274BF6FF763325ADF80A20ADF87A
:109E90000CC0ADF80470ADF80660ADF8085008F0DD
:109EA0007FFF2046012108F0F5FF012005B0F0BD3D
:109EB00000580040A0860100F0B5002085B00C4697
:109EC00016461F4609F0A8F8002009F055F84BF691
:109ED00080318C420CD04AF64440844260D0B4F5C4
:109EE000FA4F63D0344B9C4254D0002005B0F0BDF3
:109EF0004FF48170032109F035F8012009F03CF896
:109F00003B2009F0D5F84FF4805510BB3B2009F0F9
:109F1000CFF8F0B93B2009F0CBF8D0B93B2009F0DD
:109F2000C7F8B0B93B2009F0C3F890B93B2009F05D
:109F3000BFF870B93B2009F0BBF850B93B2009F0DD
:109F4000B7F830B93B2009F0B3F810B9083DDDD1BE
:109F5000CBE701214FF4804009F072F8174809F06F
:109F6000C1F84FF4007C002269461448ADF80C207B
:109F7000ADF800C0ADF806C00294ADF80260ADF8CF
:109F8000047009F017F969460D4809F0A9F9012094
:109F900005B0F0BD40F28910042108F0E3FFACE702
:109FA00040F20F10062108F0DDFFA6E74FF4D57050
:109FB000042108F0D7FFA0E7007701000038004037
:109FC0000034004070B573480E464FF4003115461A
:109FD00008F0AAFF4FF4961498B34FF400316D487F
:109FE00008F0A2FF4FF4003158B36A4808F09CFF14
:109FF0004FF4003128B3674808F096FF4FF4003162
:10A00000F8B1644808F090FF4FF40031C8B16148DE
:10A0100008F08AFF4FF4003198B15E4808F084FFE1
:10A020004FF4003168B15B4808F07EFF4FF4003117
:10A0300038B1584808F078FF18B1083CCDD100205D
:10A0400070BD5448012108F035FF5248524908F0CC
:10A050005DFF4FF4805450BB4F494E4808F056FF07
:10A060004D4920BB4B4808F051FF4B49F8B94948CE
:10A0700008F04CFF4849D0B9464808F047FF464928
:10A08000A8B9444808F042FF434980B9414808F064
:10A090003DFF414958B93F4808F038FF3E4930B9C3
:10A0A0003C4808F033FF10B9083CD5D1C7E7394820
:10A0B0003421002208F01EFF3648384908F026FFF8
:10A0C0004FF4805450BB3549324808F01FFF3349E4
:10A0D00020BB304808F01AFF3049F8B92D4808F085
:10A0E00015FF2E49D0B92B4808F010FF2B49A8B90D
:10A0F000284808F00BFF294980B9264808F006FFD8
:10A10000264958B9234808F001FF244930B92148AD
:10A1100008F0FCFE10B9083CD5D190E7C5F300214A
:10A1200041EA4600C1B21B4808F0EEFE19481C493E
:10A1300008F0ECFE4FF48054002833D1184915483C
:10A1400008F0E4FE164968BB124808F0DFFE144927
:10A1500040BB104808F0DAFE114918BB0D4808F062
:10A16000D5FE0F49F0B90B4808F0D0FE0C49C8B92C
:10A17000084808F0CBFE0A49A0B9064808F0C6FE18
:10A18000074978B9034808F0C1FE58B9083CD5D151
:10A1900055E700BF0058004001000300820007009F
:10A1A00080000700E9B2364808F0AEFE3448354971
:10A1B00008F0ACFE4FF4805650BB3249304808F0EE
:10A1C000A5FE304920BB2E4808F0A0FE2D49F8B965
:10A1D0002B4808F09BFE2B49D0B9294808F096FE81
:10A1E0002849A8B9264808F091FE264980B9244894
:10A1F00008F08CFE234958B9214808F087FE214910
:10A2000030B91F4808F082FE10B9083ED5D116E7D4
:10A210001B481D4908F088FE4FF4961450BB1A499C
:10A22000174808F081FE184920BB154808F07CFE4D
:10A230001549F8B9124808F077FE1349D0B910480B
:10A2400008F072FE1049A8B90D4808F06DFE0E49DD
:10A2500080B90B4808F068FE0B4958B9084808F067
:10A2600063FE094930B9064808F05EFE10B9083CA3
:10A27000D5D1E4E60248012108F02CFE012070BD92
:10A280000058004080000700040000102DE9E8415C
:10A29000884617460F2100221E460546FFF792FE0C
:10A2A000002840D0284600211722FFF78BFE002807
:10A2B00039D0284601211722FFF784FE98B328469B
:10A2C00002210022FFF77EFE68B328460321002208
:10A2D000FFF778FE38B3284604211222FFF772FEFA
:10A2E00008B3284605210022FFF76CFED8B12846A6
:10A2F00006216222FFF766FEC7B1B7F120035A427A
:10A300005A412EB1032E25D0052E08BF42F00C0273
:10A31000D8B94AF6444188450CBF6022002238B9BA
:10A320000020BDE8E8810020002FE6D10222E8E706
:10A3300028460821FFF746FE0028F1D028460921CB
:10A340000022BDE8E841FFF73DBE28460721FFF7A0
:10A3500039FEDEE742F00802DAE700BF2DE9F04FF0
:10A360003B4F3C4E044683B001214FF4001008F0EF
:10A3700059FE3846002108F077FA384608F0A0F96F
:10A38000354BE36100254FF480634FF6FE724FF4C6
:10A39000006B4FF4005A4FF480794FF4003840219D
:10A3A0002363A2626162A5612562E5626564A564BA
:10A3B000E5642565C4F834B0C4F838A0C4F83C900E
:10A3C000C4F84080384604F118010093019208F067
:10A3D0000FFA2946304608F047FA304608F070F97F
:10A3E0001E4F0199009AE5654FF0C06025666166D1
:10A3F000A566E266C4F870B0C4F874A0C4F878909A
:10A40000C4F87C80C4F88050C4F88450C4F88850E4
:10A41000C4F88C506065A76504F15401304608F01B
:10A42000E7F930460E4E182101224FF4804408F01F
:10A4300025FA0C4834600221012208F07BFF01213B
:10A440000A46094808F076FF012003B0BDE8F08F06
:10A4500070600240586002400C3800400C340040EC
:10A4600000E100E000380040003400402DE9F041F8
:10A470000026134D46610446884617461E4628604E
:10A48000FFF78EFC10B90020BDE8F0812046FFF7F1
:10A49000E3FC0028F7D0204641463A463346FFF712
:10A4A0000BFD0028EFD041463A4633462046FFF7E1
:10A4B000EDFE0028E7D02046BDE8F041FFF74EBF93
:10A4C0006CC2012070B501220E4609210446FFF737
:10A4D00079FD054640B31B486661828B0023520517
:10A4E000E36023616360A36024D51748818B4B052B
:10A4F0001CD5402204F1900004F58876A2626266C1
:10A50000206204F118011148E66508F071F904F1C0
:10A5100054010F4808F06CF90C48012108F0A4F927
:10A520000B48012108F0A0F9284670BD012108F070
:10A53000C7FEDEE7012108F0C3FE0348818B4B050F
:10A54000D7D4F3E700380040003400407060024088
:10A550005860024010B54469034654B101F1440209
:10A5600001F1240C00EB820003EB8C011022A047C8
:10A5700010BD426801F144002431541C03EB8002F9
:10A5800003EB81005C601A61D86010BD08B50F4B09
:10A590001A6812F0C05F0FD10C4B1A6812F0A05F5E
:10A5A00000D108BD0A484FF0A05199600068002111
:10A5B000BDE80840FFF7CEBF05484FF0C051996095
:10A5C00000681021FFF7C6FFE6E700BF0060024009
:10A5D0006CC201202DE9F04F06469DB08B464FF42A
:10A5E0008000012108F01EFD0120014608F01AFD3F
:10A5F0000220012108F016FD0420012108F012FDBF
:10A600004FF480700121002508F028FD0327FF2367
:10A6100001A95F4801938DF80B508DF8087008F080
:10A6200015FA01A95B48DFF87C9101978DF80B5072
:10A630008DF8087008F00AFA01A92C2256480192F8
:10A640008DF80B508DF8087008F000FA53490F96FA
:10A650004FF4806C4FF4005E01264FF480724FF48B
:10A6600000334FF00D084FF4006A48460E910DA9D3
:10A67000CDF84CC0CDF854E0494C169217930D9587
:10A680001095129518951A951B95CDF84480CDF824
:10A6900050A0199608F0ACF84846314608F0E4F8A6
:10A6A0004FF4403103A8049103950595069507F0F2
:10A6B00077FF204607A98DF821B007958DF8206017
:10A6C0000A950995CDF82CA08DF8308007F03AFF57
:10A6D000204632460C21072307F084FF20464146DE
:10A6E0000222072307F07EFF204629463A46072329
:10A6F00007F078FF204631460422062307F072FF58
:10A70000204602210522062307F06CFF0622204680
:10A710003946134607F066FF204604210722062328
:10A7200007F060FF204605210822062307F05AFFA4
:10A73000062120460B46092207F054FF2046072138
:10A740000A22062307F04EFF20460F210B22062384
:10A7500007F048FF204608210C22062307F042FF9D
:10A76000424606232046092107F03CFF2046314699
:10A7700007F09CFF2046314607F02AFF204631466D
:10A7800007F08AFF204607F081FF1DB0BDE8F08F7B
:10A790000000024000040240000802404C2001403A
:10A7A0000020014010640240014807F06FBF00BF65
:10A7B0000020014070B5102086B0012108F04EFC49
:10A7C0001C4D1D4E0120014608F02CFC00240223E4
:10A7D00028464FF4C06269468DF805308DF8043084
:10A7E00000928DF806408DF8074008F02FF92846B2
:10A7F0000921072208F086FA28460A21072208F0D4
:10A8000081FA4FF416550C22304602A9ADF81220F9
:10A81000ADF80C40ADF80E40ADF81040ADF8144066
:10A82000029508F0B9FE3046012108F021FF06B07C
:10A8300070BD00BF000002400010014000B50420C0
:10A8400083B0012108F0EEFB1021002301220091CA
:10A8500007488DF8043069468DF806308DF80530CC
:10A860008DF8072008F0F2F803B05DF804FB00BF94
:10A870000008024008B51021034808F033FAD0F16F
:10A88000010038BF002008BD00080240F0B50420D8
:10A890008BB0012108F0C6FB0120014608F0C2FB85
:10A8A00001203C4F3C4E0146002408F0D7FB012517
:10A8B00080236946394800938DF804508DF806408E
:10A8C0008DF805408DF8074008F0C0F84FF0020CF5
:10A8D000694638464FF410628DF804C000928DF836
:10A8E00006408DF805408DF8074008F0AFF838466F
:10A8F0002A46082108F006FA2A4638460B2108F0B5
:10A9000001FA02A808F072FDFF2702A9304603975A
:10A91000ADF80840ADF81040ADF80A408DF812408F
:10A9200008F014FD05A808F005FE6027304605A9CB
:10A93000ADF81650ADF818400794ADF82040ADF8CA
:10A940002240ADF8147008F07BFD3046082108F075
:10A95000FBFD05A808F0EEFD05A93046ADF8147022
:10A96000ADF816500794ADF8204008F0ABFD304626
:10A97000082108F0F3FD3046294608F041FD304635
:10A98000294608F0F7FD3046294608F049FD0BB08E
:10A99000F0BD00BF0000024000000140000802407E
:10A9A000027810B580210446044808F0A5F9044B4C
:10A9B00062785A63A078186410BD00BF0008024096
:10A9C0000000014038B590F838300446002B37D0ED
:10A9D0000578204804EB4501C36C4B806A1CD1B25A
:10A9E0001A2988BF002165701B4D21706D5C1B48C2
:10A9F0004FF4F07108F07CF905F0010218484FF4AB
:10AA0000004108F079F905F0020215484FF4804141
:10AA100008F072F905F0040211484FF4005108F0F3
:10AA20006BF9E810202202FA00F399B20B4808F003
:10AA300061F994F8381081F0010584F8385038BD78
:10AA4000044807F023FE94F8381081F0010584F8DB
:10AA5000385038BD00210140680000200004024049
:10AA6000000802402DE9F04701218CB00646DFF8CE
:10AA7000E080DFF8E0A0354F062008F0D3FA4FF46D
:10AA800000700121002408F0E9FA01250323404663
:10AA900069468DF804304FF4F07900958DF8074041
:10AAA00007F0D4FF694650468DF804508DF80640F3
:10AAB0008DF805408DF80740CDF8009007F0C6FFEF
:10AAC0005046494608F014F94FF4604A694640463A
:10AAD0008DF804508DF806408DF805408DF807403C
:10AAE000CDF800A007F0B2FF4046514608F002F949
:10AAF0004FF4403102A8039102940494059407F0A6
:10AB00004FFD38464FF4006206A90A9206948DF86C
:10AB10001C408DF81D40099408948DF82C5007F0C6
:10AB200011FD2A46072338460A2107F05BFD384607
:10AB3000294607F04DFD1A203070747086F83840B1
:10AB40003046FFF73FFF0CB0BDE8F0870021014021
:10AB5000000802400004024010B5012182B0044602
:10AB6000042008F05FFA0221002301220091084826
:10AB70008DF8043069468DF806308DF805308DF873
:10AB8000072007F063FFFF20207002B010BD00BF58
:10AB90000008024038B5057804466A0002210348DF
:10ABA000D5B208F09FF82843207038BD0008024055
:10ABB00001B970474FF000604FF4004107F0B8BC96
:10ABC000074B0848084A10B4F0245A60002180F866
:10ABD0002340072299605DF8044B1A60704700BF5C
:10ABE00010E000E000ED00E03F90020090ED023A3E
:10ABF000DFED723ADFED727ADFED724ADFED725A05
:10AC00009FED725A9FED727ADFED726A7249E3EE40
:10AC1000237A2DE9F00F77EEA40A704D704EFDEE09
:10AC2000E01A8046F8EEE12A11EE909A30EEE23A10
:10AC300005EB890B63EE257A6A4898ED014A98ED99
:10AC40000C6ADBED003AD8F834403768FDEEE75A7D
:10AC500024EE050A15EE905A00EB850090ED004AAF
:10AC600026EE071A23EE845AFCEEC14ABCEEC02A37
:10AC700025EE266A14EE90CA12EE10AABCEEC67A31
:10AC800001EB4C05D9074FEA4A4A17EE10BA67D4D0
:10AC9000C146C4F31001544EDFED544ADFF854C1ED
:10ACA00003EE901A524906FB07F6600C314405EB9F
:10ACB00040085E1E002B49D0614535F91070B8F987
:10ACC0000200DFED4A0AD04688BF04EB0B084FEACA
:10ACD000584C05EB4C0435F91C3007EE907AB4F96A
:10ACE0000270444C05EE900A06EE903A00EE107A9F
:10ACF000B8EEE74AB8EEE55AC8F3100CF8EEE61ADB
:10AD0000B8EEC01A02EE90CAFAEEE73A35EE446A9F
:10AD100031EE612AFAEEE72AA6EE234A3248344F92
:10AD2000E2EE221A00FB01F10F4424EE247A21EE18
:10AD3000A03AA2EC017AA74206F1FF33A2EC013A55
:10AD400001D85446A5E708EB0B04A2E7244AC9F84A
:10AD5000344000231760C9F82C30BDE8F00F70476D
:10AD6000610C4E0005EB0609A85FB9F90210DFED92
:10AD70001F0A204E06EE900A00EE101AC4F3100CC3
:10AD8000F8EEE61AB8EEC01A02EE90CA31EE612A69
:10AD9000FAEEE72A14481649E2EE221A00FB07F7FA
:10ADA0003944B14221EEA03A03F1FF33A2EC013A5B
:10ADB00094BF54465C440F46C1466AE70000904287
:10ADC000000070C2000000430000804300FEFF4608
:10ADD0000000004600000048B847010860D9060896
:10ADE0009801002064DD06080D6619000000003897
:10ADF0005FF36E3C275C8F02D0ED017AB7EE007AEC
:10AE000037EE676AF2EE006A26EE260A2DE9F00FA9
:10AE1000FDEEC05A82B015EE904A082C00F0C281B7
:10AE2000B8EEE57A661C30EE477AA71C90ED023A40
:10AE3000DFEDE73ADFEDE70A9FEDE71A9FEDE74A1E
:10AE4000E74DDFF8B88355F827C055F8266055F868
:10AE50002470DFF8AC93DFEDE31AD0ED084A9FEDE4
:10AE6000E25A446BE3EE230A01F001050CF1FF3ACC
:10AE7000B1EE0C2A70EE822A002D72EE816AC6EBCA
:10AE80000A0CBDEEE66A06F1FF3BB8EEC60A16EE06
:10AE9000105A76EEC05A08EB850865EE843A98EDB4
:10AEA000003AFDEEE30A08BFB0EE645A10EE90AA35
:10AEB00009EB8A0999ED001A23EE014A18BF002414
:10AEC00064EE211A4907BCEEE12AC7EB0B0512EE2E
:10AED000108A09D4B7EE002A32EE455ADFEDC34A94
:10AEE000A5EE642AB0EE425A591E002B00F0DB801A
:10AEF0001FFA84FB07EE90BA230C9D42FAEEC87A43
:10AF000001F0010B40F25381DFF8E89203EB070AEE
:10AF1000CDF800A009EB4A0ACDF804A0DDF800A0A6
:10AF200039F91AA002EE10AADDF804A0BAF902A0BD
:10AF300002EE90AAF8EEC26AB8EEE26A9C4536EEDE
:10AF4000660AE0EE276A00F2FE809FEDA73A4444CD
:10AF500033EE664ADFEDA61AE4EE076A01F1FF3927
:10AF600026EEA12AA2EC012A002900F09A80BBF16A
:10AF7000000F34D01FFA84FA04EE90AA230CF8EEE6
:10AF8000E47A9D4227EEA12A00F2F1809C45DFED94
:10AF9000966A40F213819749334401EB430A31F931
:10AFA0001330BAF9021000EE903A05EE901AF8EE5E
:10AFB000E03AB8EEE51A31EE634AE4EE023A444470
:10AFC00073EEE61ADFED8A4AE1EE876A09F1FF398E
:10AFD000B9F1FF3F26EEA42AA2EC012A61D0AA46CD
:10AFE0001FFA84FB230C07EE90BA9A45FAEEC87A52
:10AFF00073D89C459FED7C2A40F2E3807D49334421
:10B0000001EB430B31F91330BBF9021003EE903A18
:10B0100000EE901AF8EEE32AF8EEE05A35EEE21A66
:10B02000E1EE272A444432EEC24AA5B2A4EE072A32
:10B03000230C9A45DFED6E1A04EE905A22EE212A77
:10B04000F8EEE42A09F1FF31A2EC012A62EEA17ABE
:10B050005DD89C459FED640A40F2B680654D33444F
:10B0600005EB430935F91330B9F9025001EE103AF6
:10B0700005EE905AF8EEC10AB8EEE54A74EE601A91
:10B08000E1EEA70A444470EEC04ADFED592AA4EE6F
:10B09000870A01F1FF3920EE222AA2EC012A0029B9
:10B0A0009ED1D0ED017ADFED546A4463F4EEE67A86
:10B0B000F1EE10FAA3BFF9EE006AB1EE042AE7EE52
:10B0C000826ADFED496A80ED085A26EE856A80EDD6
:10B0D0000B6A02B0BDE8F00F70474649DD1901EB7D
:10B0E000450B31F9155006EE905ABBF9025006EEA9
:10B0F000105AB8EEE62AB8EEC60A9C4530EE423A3F
:10B10000A3EE272A3FF67BAFDFED372A8AE7394DDA
:10B1100003EB070905EB490B35F91990BBF902B0B0
:10B1200006EE909A06EE10BAB8EEE60AB8EEC63A07
:10B130009C4573EE403AA3EEA70A90D8DFED2A0AA9
:10B14000A0E7DFF8B090334409EB430A39F9133034
:10B1500003EE903ABAF9023005EE903AB8EEE33ACF
:10B16000F8EEE50A30EEC31AA1EE273AEFE62149E0
:10B1700003EB070A01EB4A0B31F91AA0BBF902B045
:10B1800002EE90AA06EE10BAF8EEE26AB8EEC60A2F
:10B190009C4530EE663AE3EE026A3FF6FDAEDFED27
:10B1A000123A0CE715EE906A092707243EE69C4503
:10B1B000DFED0D6AC5D8B0EE663AC9E6F0EE663A44
:10B1C000FEE6F0EE422A2EE7F0EE400A5BE700BF13
:10B1D00000009042000010C20000004300008043C5
:10B1E0009CCF060800008047000000003333733F07
:10B1F00000008037C0670208CDCC4C3F60D90608FC
:10B2000064DD060802EB83039A4270B445D014460D
:10B21000002644F8046B9D1AA5F1040CA342CCF35C
:10B2200082053AD01DB3012D1CD0022D16D0032D5E
:10B2300011D0042D0CD0052D06D0062D18BF44F8D2
:10B24000046B002644F8046B4FF0000C44F804CB68
:10B25000002544F8045B002644F8046B4FF0000C12
:10B2600044F804CB002544F8045BA34215D02646DD
:10B270004FF0000C46F804CB203444F81CCCC6F840
:10B2800004C044F814CC44F810CC44F80CCC44F876
:10B2900008CC44F804CCA342E9D1CC0711D590EDF9
:10B2A000027ADFED167A164C27EE270A0023FCEE11
:10B2B000C00A036210EE905A04EB850CDCF80060C3
:10B2C00016604B0717D4D0ED086A9FED0E1AF7EE03
:10B2D000001A31EEE62AE2EE411AC0ED081AD0ED6E
:10B2E000012AB7EE003A73EE623A70BC23EEA14A2F
:10B2F00080ED0B4A7047D0ED081AF0E7000080435C
:10B30000C8D306083333733FD0ED026A9FED8B7AC2
:10B31000D0ED087A26EE870A30B4FCEEC00A884CDD
:10B3200010EE905AC90704EB850C9CED001A40F111
:10B33000CE8090ED016ADFED835AD0ED0C4A9FED8F
:10B34000825ADFED821A26EE252AE4EE851A66EE91
:10B35000022A21EE617ABCEEE23A13EE101A01F1F4
:10B360004004C463591E002B00F0848011F00303D5
:10B3700073D0C56B002D40F0AD80DFED753A67EE00
:10B38000A37A012BA2EC017A01F1FF319FED717AD2
:10B3900063D0022B0CD0C36B002B40F0AC809FED30
:10B3A0006C0A67EE807AA2EC017A9FED6A7A013925
:10B3B000C46B002C40F0B080DFED654A67EEA47AE4
:10B3C000C56BA2EC017A01399FED627A002D47D05E
:10B3D000B7EE003A73EE673A9FED5F4AA3EEC43AC8
:10B3E0006C1E002C08BFB0EE417AC463F0EE437AC5
:10B3F000A2EC017A01F1FF3C00293BD0C16BDFEDEB
:10B40000556A00295ED0F7EE000A70EEE77A9FEDEC
:10B41000526AE7EEC60A4B1E002B08BFF0EE416AE7
:10B42000C363C56BDFED4B4AC2ED006A002D3AD114
:10B43000DFED475A60EEA51AC16BDFED462AC2ED7B
:10B44000014A09BB9FED423A61EE837A0C329FEDCF
:10B45000417A42ED012AACF10301C56B002DB7D151
:10B46000DFED3B2AA2EC017A67EEA27A01F1FF3C04
:10B470000029C3D1B6EE007A27EE871AC0ED087A0C
:10B4800080ED0B1A30BC7047F7EE007A4B1E77EE5A
:10B49000E13A9FED314AC363002BE3EEC47A08BF63
:10B4A000F0EE412AD2E7F7EE001A6C1E31EEE02AE8
:10B4B0009FED295AC463002CE2EE451A08BFF0EE56
:10B4C000414AB9E79FED220A67EE800AA9E79FED9E
:10B4D000217A47E7B7EE004A74EE677ADFED1E6A1D
:10B4E000A7EEE64A6C1E002C08BFB0EE417AF0EEE3
:10B4F000447AC46345E7F7EE000A30EEE76ADFED11
:10B50000165AE6EE650A5D1E002D08BFB0EE417AC0
:10B51000F0EE607AC56346E7B7EE005A75EE671A3B
:10B520009FED0D2AA1EEC25A631E002B08BFB0EE9C
:10B53000417AF0EE457AC36342E700BF00008043E2
:10B54000C8D3060800008045CDCC4C3ECDCC4C3D48
:10B550006666663F00000000643B7F3FD0ED016AF5
:10B56000DFED937A26EEA67AC90726EE870A48BF52
:10B570004FF07C5166EE800AB4EE006A48BF41622B
:10B58000F0B4E0EE867A591E002B00F00F81894E50
:10B5900011F00307346800F0CD80874B874D9FED95
:10B5A000881AD0ED092A03FB04F4254405EE105A4D
:10B5B000F8EE451AF6EE005A21EE812A0139F4EE32
:10B5C000C27AF1EE10FA32EE653AC8BFF1EE622AA5
:10B5D00073EE623AC8BFC0ED092AE3EEA02A012F3C
:10B5E0002C46E2EC012A00F0A580022F23D0724FF6
:10B5F000724C9FED734A90ED090A07FB05FC644409
:10B6000004EE904AF8EE646AB6EE006A26EE847A9A
:10B610000139F4EEC77AF1EE10FA37EE461AC8BFD8
:10B62000B1EE400A31EE405AC8BF80ED090AA5EEDE
:10B63000200AA2EC010A604B604DDFED611AD0EDEB
:10B64000093A03FB04F4254402EE105AF8EE422AAC
:10B65000F6EE005A22EEA13A0139F4EEC37AF1EE89
:10B6600010FA33EE654AC8BFF1EE633A74EE634AEE
:10B67000C8BFC0ED093AE4EEA03A2C46E2EC013A2C
:10B6800058E0D0ED095AF1EE654AC0ED094AF6EEF0
:10B69000006A494B49499FED4A0A484FDFED483A55
:10B6A00034EE667A03FB04FC37EE646A614401EE13
:10B6B000101AE6EE204A404CB8EE415AC2ED004A5C
:10B6C00065EE001A90ED092AF4EEE17AF6EE002A12
:10B6D000F1EE10FA31EEE23AC8BFB1EE422A04FBB5
:10B6E00001F31F4433EE424A04EE907AC8BF80ED66
:10B6F000092AA4EE202A0C32E91EF8EE645A02ED63
:10B70000022A25EEA37AD0ED096AF4EEC77AB6EEE6
:10B71000000AF1EE10FA37EE406AC8BFF1EE666A31
:10B7200036EE661AC8BFC0ED096AE1EE206A3C46F3
:10B7300042ED016A204F214BDFED216A90ED091A9D
:10B7400007FB04FC634407EE103AB8EE470AB6EE76
:10B75000005A20EE266A4D1EF4EEC67AF1EE10FA7B
:10B7600076EE451AC8BFB1EE411A31EEC12AC8BF04
:10B7700080ED091AA2EE201AA2EC011AA9B10E4915
:10B780000E4CDFED0F2A01FB03F73C4403EE104A99
:10B79000F8EE433A23EEA24AF4EEC47AF1EE10FA40
:10B7A0003FF76FAFD0ED094A71E73360F0BC7047E7
:10B7B00017B7D138980100200D6619005FF36E3C71
:10B7C0000000802FF0B4591E002B00F08680DFF8B7
:10B7D0001CC111F00304DCF8007059D04048414B03
:10B7E0009FED417A00FB07F73B4405EE903AFEEEF1
:10B7F000007AF8EE656AB0EE676AA6EE876A012CF9
:10B8000001F1FF311F46A2EC016A41D0022C0DD09C
:10B81000344D00FB03F6354405EE105AF8EE450AA8
:10B820000139E0EE877A2F46E2EC017A2C4C2D4864
:10B830009FED2D1A04FB07F3184401EE900AB8EEB1
:10B84000612AFEEE002AE2EE012A01390746E2EC07
:10B85000012A1DE006EE906A06EE105A05EE104A27
:10B86000F8EE667AB8EE460AB0EE641AB0EE642AD4
:10B87000F8EE450AA7EE831A10320439A0EE032A27
:10B88000E0EE834A80ED001A02ED022A42ED014A01
:10B89000144E13489FED143A00FB07F733463B4420
:10B8A00003EE903A00FB03F7B8EE634AFEEE004A5F
:10B8B00035463446B0EE647A3E4400FB06F7A4EE0B
:10B8C000037A3D4400FB05F0044410462746A0ECF3
:10B8D000017A0029BED1CCF80030F0BC704700BF1F
:10B8E0000D6619005FF36E3C0000802F9801002068
:10B8F0002DE9F001CC071FD5BB4DBC4F2E68BC4CC9
:10B900009FEDBC7ADFEDBC6A07FB06F8444405EE08
:10B91000904AB8EE656AF7EE007A26EE070AB0EEB6
:10B92000671A66EEC00A0027A0EE801A2C608763B3
:10B93000C0ED0A7A80ED091A02EB830C624544D00F
:10B940001446002644F8046BC2EB0C052F1FA445D7
:10B95000C7F3820539D015B3012D1BD0022D16D0A7
:10B96000032D11D0042D0BD0052D06D0062D18BFA8
:10B9700044F8046B002644F8046B002744F8047B69
:10B980004FF0000844F8048B002544F8045B0026BF
:10B9900044F8046B002744F8047BA44515D02546E1
:10B9A0004FF0000845F8048B203444F81C8CC5F88F
:10B9B000048044F8148C44F8108C44F80C8C44F83F
:10B9C000088C44F8048CA445E9D1490740F1098169
:10B9D00090ED022ADFED892A894C22EE223A5D1E83
:10B9E000FCEEC33A13EE901A04EB810C9CED006A56
:10B9F000002B00F0F6807C4E816B3468131D05F03F
:10BA00000107002900F006814A1E82630433691E83
:10BA1000002D00F0E580002F00F0D180826B002A1D
:10BA200000F0D181551E856301394A1C03F10403DE
:10BA300040F0C580D4E06D4F6D4A9FED6E0ADFF88F
:10BA4000D0C1DFED707A07FB04F49046224405EE86
:10BA5000902AF8EE650AF6EE006A20EE807A07FB7F
:10BA600002F527EE261AA844E045E7EE017A40F2F7
:10BA7000508190ED097AD0ED0A6AB5EE001A67EEB2
:10BA8000870A36EE812AC0ED090AF4EEC20AF1EE09
:10BA900010FA80F25681DFED5C1ADFED5C2A20EEB1
:10BAA000A13A444663EE223ABCEEE34A14EE105A41
:10BAB000B7EE001A71EE666AB0EE417AA6EEE67A4B
:10BAC0008563876B66EE200AF6EE001A60EE872A21
:10BAD0004A1E43ED012A90ED013AD0ED0A3A31EECB
:10BAE000434A043324EE445AA5EE211A63EE814AF8
:10BAF000C0ED0A4A002F6DD13C4F3D499FED3D0AF4
:10BB0000DFF80CC1DFED3F7A07FB04F488462144DF
:10BB100005EE901AB8EE651AF6EE006A61EE000ABC
:10BB200007FB01F520EEA67AA844E045E0EE877A0F
:10BB300040F2D28090ED091AD0ED0A6AF5EE000AC3
:10BB400027EE817A36EEA02A80ED097AB4EEC27A29
:10BB5000F1EE10FAC0F216819FED2B5ADFED2B4A61
:10BB600080ED092A22EE050A444660EE247AB0EE02
:10BB7000427AFCEEE75A15EE905AB7EE001A71EED3
:10BB8000666A66EE070AB0EE417AA6EEE67A85634B
:10BB90000433F6EE001A60EE872A511E43ED022AA6
:10BBA00090ED013AD0ED0A3A31EE434A24EE445A80
:10BBB000A5EE211A63EE814AC0ED0A4A82B1826B7A
:10BBC000002A3FF438AF571E8763876B4A1E043341
:10BBD000002F91D0791E81630433511E002AEED1CB
:10BBE0003460BDE8F0017047980100200D6619002F
:10BBF0005FF36E3C0000802F9A99193F000080434C
:10BC0000C8D306086666863F9A99193E0000FA4630
:10BC1000003333B3DFF8A4C3E14A9FEDE24ADFF813
:10BC2000A083DFEDE14A0CFB04F41146224405EE4B
:10BC3000102AB8EE457AF6EE006A67EE045A0CFB5D
:10BC400002F265EEA67A11444145E5EEA74A40F2BC
:10BC5000388190ED093AD0ED0A3ADFEDD46AB5EEBD
:10BC6000004A24EE835A73EE844A80ED095AB4EEFA
:10BC7000E45AF1EE10FAC0F27A81DFEDCD0AC0EDA0
:10BC8000094A24EEA61A0C4661EE201AB0EE645A58
:10BC9000BCEEE12A12EE101AF7EE002A32EEE33A79
:10BCA000B0EE624AA3EE434A816366EE053AF6EED1
:10BCB000004A63EE846A43ED016A90ED017AD0EDAB
:10BCC0000A5A72EEC77A27EEE70AE0EE242A65EEFA
:10BCD000A20AC0ED0A0A99E6B14CB64990ED097A7C
:10BCE00007FB08F73C448C423DD887EE277A9FED4E
:10BCF000B24A80ED097AB4EEC47AF1EE10FA00F29D
:10BD0000D18080ED094AB0EE447AD0ED0A6A602510
:10BD100033E7A34CA74AD0ED090A07FB08F73C44D8
:10BD200094423DD99FEDA12ADFEDA11AD0ED0A6A18
:10BD300060EE822A22EEA13AFCEEC33A13EE905A4C
:10BD4000B6E69FED9A5ADFED9A4A80ED092A22EE77
:10BD5000050A444660EE247AF0EE420AFCEEE75A09
:10BD600015EE905AA4E69FED912ADFED911AD0EDE1
:10BD70000A6A67EE022A22EEA13AFCEEC33A13EEFB
:10BD8000905AFAE6DFED891ADFED892A27EE213A8B
:10BD9000444663EE223ABCEEE34A14EE105AECE657
:10BDA000C0EEA70A9FED844AC0ED090AF4EEC40A6A
:10BDB000F1EE10FA67D8F0EE440AD0ED0A6A80ED91
:10BDC000094A602574E67D4F754A9FED761ADFF8C3
:10BDD000F0C1DFED751A07FB04F49046224402EE31
:10BDE000102AF8EE422AB6EE003A62EE813A07FBDC
:10BDF00002F523EE834AA844E045E3EE841A7CD999
:10BE000090ED097AD0ED0A6ADFED682AB5EE001AE6
:10BE100021EE872A76EE811A80ED092AB4EEE12A16
:10BE2000F1EE10FAC0F2AF80DFED614AC0ED091A01
:10BE300061EEA27A444667EEA45AB0EE612ABCEEE7
:10BE4000E50A10EE105AF7EE000A70EEE66AB0EE60
:10BE5000601AA6EEE61A856326EE027AF6EE001A5E
:10BE600067EE012A43ED012A90ED013AD0ED0A3A3E
:10BE700030EEC34A24EE445AE5EE210A63EEA04AAE
:10BE8000C0ED0A4AD0E59FED495ADFED494AD0EDB1
:10BE90000A6A20EE850A60EE247AFCEEE75A15EE77
:10BEA000905A05E69FED415ADFED414AD0ED0A6A0E
:10BEB00027EE050A60EE247AFCEEE75A15EE905A5A
:10BEC0005BE6374C3B4A90ED095A0CFB01FC64449D
:10BED00094422ED885EE245A9FED370A80ED095AF8
:10BEE000B4EEC05AF1EE10FA23D880ED090AB0EE94
:10BEF000405AD0ED0A3A6021CEE6294C2D4A90ED09
:10BF0000092A07FB08F73C44944221D882EE212AF3
:10BF10009FED295A80ED092AB4EEC52AF1EE10FAF8
:10BF200016D880ED095AB0EE452AD0ED0A6A602590
:10BF300089E7DFED1E0A9FED1E1AD0ED0A3A65EE85
:10BF4000201A21EE812AFCEEC22A12EE901AA3E6F4
:10BF5000DFED164ADFED167AD0ED0A6A62EE245A5A
:10BF600025EEA70AFCEEC00A10EE905A6BE79FED93
:10BF7000107A65EE265A0C4665EE877ABCEEE70A23
:10BF800010EE101A88E69FED0A3A62EE223A444615
:10BF900023EE834ABCEEC45A15EE105A53E700BF95
:10BFA0005FF36E3C0000802F6666863F9A99193ECB
:10BFB0000000FA46FFCCCC4C0AD7A33C0D66190012
:10BFC000003333B3F0B40C4A0C4F0D4E0D4D82606C
:10BFD00000234FF07C5400220221C76006614561B6
:10BFE000446201704360C36183610362C36203639F
:10BFF0008263C263F0BC7047A4707D3F22BA003DEB
:10C000000AD7233CCAAA7F3FF8B590F800E0BA4FA0
:10C010000446002507EBCE00E56240681D46C307D5
:10C02000164600F13D8157F83E7004EB6000324641
:10C030002B46B8472178012940F2318194ED027AEC
:10C04000DFEDAE7A27EE270A0629FCEEC00A00F0E3
:10C050002E8110EE90CAAA4AAA4F4FEA8C0E724463
:10C06000BE441068DEF8001061614FF08043E0606C
:10C070002361D4ED067A94ED077A6F1E002D00F04F
:10C080000A8196ED004A94ED045AD4ED034AD4EDAA
:10C09000055AA5EE674A07F00302023DF0EE676A13
:10C0A000A7EEE44A34EE470A60EE250AE4EEA06A01
:10C0B000A4EEA67AF0EE667AA6EC017AE4EEA07A17
:10C0C000A4EEA67A002F00F0E680002A6AD0012AAA
:10C0D00047D0022A22D096ED001AD4ED041A94ED2E
:10C0E000032AD4ED052AA1EEE71A013DF0EE673AE6
:10C0F000A7EEC21AB0EE474A31EE476A26EE223A60
:10C10000E2EE033AA2EE234AF0EE637AB0EE447A0E
:10C11000E2EE037AA2EE237AA6EC014AD6ED004ABB
:10C1200094ED045A94ED030AD4ED055AE5EE674AFE
:10C13000013DB0EE671AE7EEC04AF0EE471A74EE22
:10C14000C70A60EEA56AA0EE261AE0EE011AF0EE2C
:10C15000417AB0EE617AE0EE267AA0EE017AE6EC62
:10C16000011A96ED002AD4ED042A94ED033AD4ED99
:10C17000053AA2EEE72A013D691CF0EE674AA7EEF8
:10C18000C32A32EE476A26EE234AE3EE044AA3EEC0
:10C19000247AF0EE647AA6EC017AE3EE047AA3EE58
:10C1A000247A78D0D4ED045A96ED000A94ED035A1F
:10C1B000D4ED050AA5EEE70A3346043D1036A7EE96
:10C1C000C50A681C70EE476A26EEA01AE5EE017AF1
:10C1D000A5EE277AF0EE671AE5EE011AA3EC017AD4
:10C1E000D4ED042A16ED032A94ED033AD4ED053A72
:10C1F000D3ED014AA2EEE12AA5EE277AA1EEC32AE9
:10C2000032EE476A26EE234AE3EE041AA3EE217AC1
:10C21000B0EE610AA3EE040A83ED007AD4ED045A6D
:10C2200094ED035AD4ED050A56ED017AE5EEC04AC5
:10C23000A3EE217AE0EE454A74EEC76A26EEA01A14
:10C24000A5EE010AA5EE007AF0EE401AE5EE011A1D
:10C2500006ED027A94ED042AD4ED032A94ED053A12
:10C26000E2EE617AA5EE007AE1EEE27AB0EE616A82
:10C2700077EEC73A63EE834AA2EEA46AB0EE464A6E
:10C28000A2EE867AA2EEA44A06ED017AF0EE447A96
:10C29000A2EE867A86D1C4ED067A84ED077AF8BDDF
:10C2A000401057F83E20235820449F58BFE6D4ED55
:10C2B000016A154A124F26EEA71A10EE90CAFCEE3C
:10C2C000C11A07EB8C0E11EE900A02EB80019EED75
:10C2D000002A91ED006A84ED032AF7EE002AB0EE01
:10C2E000623AA2EE063A84ED046AA2EE023AC2EE87
:10C2F000833AC4ED053ABCE6840000200000804388
:10C3000074B1060880BB06087CB70608F0B40023A9
:10C31000032502244FF07A5600224FF07C5701216A
:10C320004FF07E5C0762A0F84450C586A0F84640F6
:10C3300080F830408660C661C0F804C00360C36006
:10C34000836103648363C36380F8311080F8321023
:10C35000A0F84A20A0F8482080F84C20F0BC704794
:10C360002DE9F001059FD0ED177A90ED187A07F1CD
:10C37000FF3C002F00F0A0800D4690ED156AF5EC13
:10C38000016AD0ED165AE7EE067A04460CF003086F
:10C39000E5EEC76ABE1EE4EC017A36EEE70AA6EEC9
:10C3A000007ABCF1000F00F08780B8F1000F3BD09D
:10C3B000B8F1010F24D0B8F1020F10D0D0ED150A5A
:10C3C00090ED161AF5EC011AE7EE207A013EE1EE47
:10C3D000471AE4EC017A31EEE72AA0EE827A013EB8
:10C3E000D0ED152A90ED163AF5EC013AE7EE227AF7
:10C3F000E3EE473AE4EC017A33EEE74AA2EE847AC0
:10C40000013ED0ED154A90ED165AF5EC016AE7EEC3
:10C41000247AB6F1FF3FE5EE476AE4EC017A76EE66
:10C42000E75AA4EEA57A47D0A846B8EC010AD0EDA9
:10C43000160A90ED156AA0EEC70AA4461035E7EE7D
:10C44000067A043E1034B6F1FF3F30EE671AECEC8A
:10C45000017AA6EE017AD0ED152AD0ED161A98EDE4
:10C46000002AE7EE227AA1EEC72ACCED007A32EE5E
:10C47000673A15ED024AD0ED154AD0ED163AA2EE14
:10C48000837AE7EE247AA3EEC74A44ED027A34EECB
:10C49000675A90ED150AD0ED165A55ED016AA4EED3
:10C4A000857AE7EE007AE5EEC76A44ED017A76EE2A
:10C4B000E70AA0EE207AB7D190ED121AC0ED177AF4
:10C4C000FDEEC17ADFEDA61AA64C80ED187AB8EE23
:10C4D000E76A251D31EE462AD0ED137A90ED147AE5
:10C4E00090ED106AD0ED115A62EE213AF7EE004A53
:10C4F000BDEEE33A74EEE72A13EE106A4FEA8608BF
:10C5000008EB040CA844B8EEC35A9CED004AD8EDE1
:10C51000006A33EEC50A76EEC40A22EE872AA0EE40
:10C52000204AB5EE007AA7EE842A31EE071A32EEE1
:10C53000243AB4EE004AF0EE083A72EE232A63EE93
:10C54000046ABDEEC15A22EE840AF8EEC50ABDEEB9
:10C55000E62A31EE601ABDEEC03AB8EEC27A61EE5C
:10C56000213AF8EEC32A76EEC76AFDEEE30A30EE12
:10C57000624A26EEA17A05EE107A64EE216A10EE88
:10C58000906AFDEEC71AB8EE450A4FEA8608BDEE7E
:10C59000E63A11EE906A84EE805A08EB040CA84447
:10C5A000B8EEE02ADCED002A98ED001A4FEA860C7E
:10C5B00013EE106A33EEC20A71EE620AB6000CEB9B
:10C5C0000408AC4434443544E0EE202AB8EEE11AC5
:10C5D000D8ED003ADCED001A94ED004A95ED002A02
:10C5E000B8EEC33A37EE417A31EEE30A72EE440A0E
:10C5F00076EEC36AE7EE003AE7EEA24AA6EEA04A5C
:10C60000F6EE002A33EEC61A74EE651A64EEA24AFC
:10C6100061EE053A21EE854A27EEA42A002F00F0AC
:10C620009C80FC07844600EB870864D433EE866A5E
:10C6300074EE255A80ED106AC0ED115A8446B1ECB3
:10C64000017ABCEC013AD2ED007A9FED475A33EE05
:10C65000470AA0EE027A65EE870AF0EE606AD6EE2F
:10C66000076AE6EE070A26EEA21AE0EEA27AC1EE0B
:10C67000052AE2EC017AD3ED001A71EEA24AE3EC4E
:10C68000014A90ED106AD0ED115A34E0D0ED100A55
:10C6900090ED113A33EEA01A74EE032A80ED101AD1
:10C6A000C0ED112AD1ED016ADCED011A92ED017A9B
:10C6B00071EEE64A3A46E4EE826A04F1040C311D5A
:10C6C00022EEA66AF0EE465AD1EE265AA1EE266A6E
:10C6D00025EEA70AA6EE277A80EE055AA2EC017A8B
:10C6E000D3ED017A77EE850A2B46E3EC010A90ED53
:10C6F000106AD0ED115A33EE860A74EE250A80EDE9
:10C70000100AC0ED110A64460E46B4EC013AF6EC8C
:10C71000016A9FED155A92ED007A33EE661AF6EE35
:10C72000007AE1EE026A17461D46444560EEA62AED
:10C73000F0EE621AD0EE261AE0EE262A61EEA74A43
:10C74000A2EEA77A84EE856AA7EC017AD3ED005AAF
:10C7500035EE860AA5EC010A98D1BDE8F0017047D4
:10C7600000008045606006083333333F9FED7B7ADD
:10C77000DFED7B7ADFED7B6A2DE9F00F60EE870A53
:10C7800082B0BDEEE02A784E019312EE107A06EEEA
:10C79000103ABB0003EB0608F8EEC25AD8ED002AA7
:10C7A00098ED013A714D724CD0F808B0D0F80CA059
:10C7B00070EEE54A33EE625AB8EE464AE4EE852A58
:10C7C000F7EE003A30EE227AC3EE840A27EE276AAB
:10C7D00060EE277ABDEEC64AFDEEE75AB6EE082AAD
:10C7E000A2EE820A14EE10CA15EE907AACF5A046BD
:10C7F000A7F5A04306F30F0803F30F0908F5004C53
:10C8000009F500434FEA232830EE660A5FFA8CF6FA
:10C810005FFA83F94FEA2C2705EB870C04EB8603BC
:10C8200005EB8805F3EE086A04EB8904DCED002AC9
:10C8300093ED003AD5ED004A94ED005A90ED007A60
:10C84000D0ED017AA1EE260A22EE832A24EE854A53
:10C8500071EEC71ABCEEC26AFCEEC45AB5EEC00A4D
:10C86000F1EE10FA16EE10CA15EE908A61EEA00AEB
:10C870000ED920EE400ADFED3F2ADFED3F6AE0EE01
:10C88000223AF4EE663AF1EE10FA48BFF0EE663A5C
:10C89000019F002F55D0019E384B01EB860955466C
:10C8A0005C4621EE273A9FED362A9FED364AF1ECA1
:10C8B000017A63EE024A6544BCEEE45A37EE207A10
:10C8C00015EE107A2F443E0D3F0301EE907A03EBF4
:10C8D000860797ED006AD7ED015AB8EE610A75EE4A
:10C8E000C62A60EE046A4444A6EEA26A4945E7EE11
:10C8F000067A27EEA33A23EE022AFCEEC27A17EE5E
:10C90000907A27444FEA17564FEA073704EE907A99
:10C9100003EB8607D7ED007AD7ED011AB8EE645A1B
:10C9200031EEE76A25EE044AE4EE067AE2EC017A9B
:10C93000B7D10199C3444A1EE24402FB08BB02FB83
:10C940000CAAC0F808B0C0F80CA080ED007AC0EDC9
:10C95000017A02B0BDE8F00F704700BF000000434D
:10C96000000080430000704278B506086CA50608F8
:10C97000A8370108A69BC43A0000000060600608C2
:10C980000000004F0000802F2DE9F04F00F24445D9
:10C99000044687B02846FFF7B9FC9FED8F7A032243
:10C9A000A4F88824F6EE007A22460023022604F535
:10C9B000896C04F24C4704F25C4A04F58C6904F279
:10C9C000644804F2D440012104F58A6BF7EE006A52
:10C9D000A4F88A6485ED007ACCED006A04F6C855A7
:10C9E000C7ED007A8BED007A271DCAED007AC9EDFC
:10C9F000007A04F6C45AC8ED007A04F6BC5984F8EB
:10CA0000746484F8751484F87614A4F88E34A4F849
:10CA10008C3484F8403402F5A36602F64C5104F5D8
:10CA20005C6880ED007A04F21C5402F555600195B3
:10CA30000396049005919C460294154611461046B3
:10CA4000164606F59E6402F59D6B4FF0000E07F545
:10CA50009E63CBF800E0C4F800E0604CC3F800E04F
:10CA600000F5A763C0F8344500F6381E9FED5A0A5A
:10CA70009B46ABEC010A203303ED070A8BED010A5C
:10CA800003ED050A03ED040A03ED030A03ED020AB0
:10CA900003ED010A7345E9D10024C0F83045029B3B
:10CAA000039CDFED4F0A83ED000A06F5A26B84EDCF
:10CAB000000AF0EE001ACBED000A07F5A26BCBEDF1
:10CAC000001A9FED481ADFF830E105F6445B02F5E5
:10CAD0009C6305F5546483ED000A84ED001ACBF8DD
:10CAE00000E005F6485E404BCEF80030049C059B04
:10CAF00084ED000A83ED000ABCF1000F4AD001F674
:10CB0000B8533A4CDFF8F4B001F55B6E8EED000AD5
:10CB10001C6001F6A85E01F6AC548EED000A84EDAF
:10CB2000000A019C01F6B4534FF07E5EBCF1010F88
:10CB300083ED000A84ED000A8AED000AC9F800B00E
:10CB4000C8F800E023D0019C04F16403029C019327
:10CB500004F11003039C029304F11003049C03935B
:10CB600004F11403059C049304F114030CF1010C6B
:10CB700004321036103700F5816064310AF1640A1E
:10CB800009F1640908F164081435059359E707B001
:10CB9000BDE8F08F01F6B853154CDFED162A01F50C
:10CBA0005B6B8BED000A01F6A85E1C60019B8EEDAD
:10CBB000000A01F6AC5401F6B45B4FF07E5E84EDE2
:10CBC000000A8BED000A83ED000A8AED000AC9ED28
:10CBD000002AC8F800E0B6E700000000CCD706083D
:10CBE0007A371E3F22BA003DCAAA7F3F3333333F14
:10CBF000333333BF5C30A03E0AD7233C5C30A03EC9
:10CC0000D1ED007A9FED567AF4EEC77AF1EE10FA84
:10CC10002DE9F00F72D4DFED536AF4EEE67AF1EE0F
:10CC200010FA3FD4B7EE000A70EE670A9FED4E1A75
:10CC30009FED4E6AF6EE085AA0EEA51A00F2444A9D
:10CC400000F58A6C00F25C4761EE061A00234FF093
:10CC5000030B022400F5896900F24C4800F58C664C
:10CC600000F26445A0F888B4A0F88A440121CAF80B
:10CC70000030002289ED000A88ED000ACCF800306F
:10CC80003B60C6ED001AC5ED001A80F8744480F8C8
:10CC9000751480F87614A0F88E24A0F88C24BDE8D2
:10CCA000F00F704737EEC72AF1EE042A00F2444233
:10CCB00022EE223A00F5896A00F58A6800F25C4C9F
:10CCC00000F58C6700F264460023294D03210224FD
:10CCD0004FF07E5B00F24C49A0F88814A0F88A441B
:10CCE00001211360CAF800B0002289ED003AC8F8AB
:10CCF0000030CCF800303D603560C6E7DFED1D3A0E
:10CD00009FED1A4AF6EE044AE7EEA43A00F2444ACE
:10CD100000F5896900F24C4823EE845A00F58A6CCC
:10CD200000F25C470023032202244FF07E5B00F5F3
:10CD30008C6600F26445A0F88824A0F88A4401219A
:10CD4000CAF800300022C9F800B0C8F80030CCF8AA
:10CD500000303B6086ED005A85ED005A95E700BF34
:10CD6000CDCCCC3E9A99193F9A99193E6666E63F1A
:10CD7000CDCC4C3FCDCC4C3E2DE9F04F2DED068B6C
:10CD800099B01746F0EE408AB0EE608A1493804660
:10CD90008946DDF8B0B0002A01F0048190F84044E3
:10CDA000012684EA060780F8406447F00405FFF78F
:10CDB00027FF002F01F02F81B8F88864B8F97A4472
:10CDC000B44204D098F89024002A01F0598108F266
:10CDD000444494ED002A08F59061DFEDE32AB8F8A9
:10CDE0008AE4002308F27C4C08F2844A8CED002A85
:10CDF000F0EE621AA8F87A341846F0EE626ACAEDCC
:10CE0000002A4FF0010C0427BEF1000F41F0F98019
:10CE1000B34201F0FC8004EB8305D5ED065A9FED8B
:10CE2000D33AD34E65EE833ABCEEE34A14EE102AB1
:10CE30004FEA820E764496ED00AA96ED015AF8EE7E
:10CE4000444A75EE4A9A33EEE49AA9EE29AA43447D
:10CE500004EB8C0493F874C4C64BD4ED00AADFED48
:10CE6000C62A9FEDC65A0CF10A02B6EE001A53F814
:10CE7000226030443E4490ED000AD6ED007AB4EED4
:10CE8000C18A3AEE267A77EEC00AF1EE10FA3AEE4F
:10CE9000C26A8AED007AA0EEA10A08F59B6A08F240
:10CEA000D447A8BFBFEE001AF0EE421AA4BFB0EEFE
:10CEB000002AA8EE021A11979AED002A99ED0C8A21
:10CEC000DFEDAF6AB8BF9FEDA81A99ED0BAADFEDB1
:10CED000ADAA97ED003A78EE425AE0EE061AA5EEBA
:10CEE000A22AB2EE080AB4EEE62AF1EE10FA94BFD6
:10CEF000DFEDA56ADFEDA56A9FEDA56AC1ED001A19
:10CF000071EE219A98BF62EE266AAAEE050A66EED5
:10CF1000A97A78EEC60AA7EEAA0AB6EE001A22EEA1
:10CF2000027AA0EE810A04EE10BA62EE071AFAEE57
:10CF3000082A8AED002A79EEC33AF8EE444A22EE36
:10CF4000212AB4EEE20AB7EE008AF1EE10FA83EE7F
:10CF5000A49AA2EE018A01F12280DFED846A60EEDC
:10CF6000265ABDEEE53A13EE100AA0F5A041D9ED20
:10CF70000A3A9FED884A9FED88AA01F30F0E73EEDF
:10CF8000C44AB0EE005A64EEE4AA0EF50045AAEEDB
:10CF900085AA824C824E99ED0F6ADFED820A9FEDE1
:10CFA000820A9FED821A2A125FFA85FC04EB820A3C
:10CFB00006EB8C03D3ED001A9AED007A2A9BB7EEAC
:10CFC000042AF7EE007A6AEE022A67EE216A76EE0C
:10CFD000275AC7EE8A3A4FEA8B070A970A9C2A9F7C
:10CFE000274408F5546E08F6445508F6485108F6EB
:10CFF000545008F6585608F65C52BB4287EEA2AA77
:10D0000065EEA64A26EEA64A24EEA45AF0EE60AAE1
:10D01000E4EE00AAE5EE000AB0EE413AA4EE2A3AA8
:10D02000A5EE201A66EE830A24EE811AB0EE677A26
:10D03000F0EE671AA0EEA37AE1EE0A1AA0EEA07A4B
:10D04000E1EE011A87EE872AC7EEA17ACEED000A3B
:10D05000C5ED003A81ED002A80ED001A86ED00AAA8
:10D06000C2ED007A46D02A998A4600254AF8045B28
:10D07000C1EB070CACF104005745C0F3820639D070
:10D0800016B3012E1BD0022E16D0032E11D0042E63
:10D090000CD0052E07D0062E18BF4AF8045B4FF0BF
:10D0A000000E4AF804EB00224AF8042B00244AF848
:10D0B000044B00234AF8043B00254AF8045B002196
:10D0C0004AF8041B574515D0D44600264CF8046B8B
:10D0D0000AF1200A4AF81C6CCCF804604AF8146C77
:10D0E0004AF8106C4AF80C6C4AF8086C4AF8046C60
:10D0F0005745E9D12B9F0A982B9A0744BA426DD025
:10D100002B9B9E4600244EF8044BC3EB070AAAF162
:10D1100004057745C5F3820160D0002948D0012974
:10D120001BD0022916D0032911D004290BD00529C0
:10D1300006D0062918BF4EF8044B00264EF8046BA3
:10D1400000204EF8040B4FF0000C4EF804CB0022E8
:10D150004EF8042B00244EF8044B00234EF8043BF9
:10D1600077453BD024E000BF000000000000804372
:10D1700090C706081C000020CDCCCC3D00000C431D
:10D180006666663F0000F042CDCC8C3FA4707D3FC8
:10D19000000080429A99193FF628DC3FB03F010811
:10D1A000A83701088FBA214149265F42DB0F494069
:10D1B000F24600254AF8045B0EF1200E4EF81C5C86
:10D1C000CAF804504EF8145C4EF8105C4EF80C5C33
:10D1D0004EF8085C4EF8045C7745E9D1299F0A991E
:10D1E000299E0F44BE42049748D0299C049DA44622
:10D1F00000204CF8040BC4EB050EAEF104026545AB
:10D20000C2F382033AD013B3012B1AD0022B15D0EC
:10D21000032B10D0042B0BD0052B06D0062B18BFE8
:10D220004CF8040B00274CF8047B00214CF8041B3D
:10D2300000264CF8046B00204CF8040B00254CF839
:10D24000045B00244CF8044B049A624516D0E24675
:10D2500000234AF8043B049FCCF80430CAF8043099
:10D260000CF1200C4CF8143C4CF8103C4CF80C3CE5
:10D270004CF8083C4CF8043C6745E8D108F2DC4126
:10D28000D1ED002AD9ED026ADB4EDFEDE15A1291B1
:10D2900036EEE2AA96E80300EAEE252A16AD85E806
:10D2A0000300DFEDD63A129802954FEACB04621ED6
:10D2B0000BF1FF370D94C0ED002A08F5007308F557
:10D2C000806108F6B45608F6685508F55B640020DE
:10D2D00038EEE3AA10970F920B93039113960E95D5
:10D2E0000994CDF83080CDF81480CDF81C80CDF8AD
:10D2F000188008905F460C9A289C149B089902F5A8
:10D300009D65D5ED006A002908BF1C46002F00F07E
:10D31000E980A246FAEC014A0A9834EEE64AB4EEF5
:10D32000005AF0EE66AAE4EE05AAC446864616EE5A
:10D33000906AB0EE6A3AA4EE053A4CF8206BA64427
:10D34000B0EE430AA4EE050AA0F1040BF245CBF3BC
:10D350008001B0EE406AA4EE056A0CF120024CEDAB
:10D3600007AAF0EE460AE4EE050A0CED063AB0EE26
:10D37000601AA4EE051A0CED050AF0EE416AE4EE1F
:10D38000056A0CED046A4CED016A4CED030A0CEDE4
:10D39000021AE4EE056A00F0A580A9B394ED017AC3
:10D3A00042ED086A77EE661A0AF1040AE1EE856A30
:10D3B000F24502F12002B0EE662AA1EE852A42ED86
:10D3C0000F6AF0EE427AE1EE857A02ED0E2AF0EE77
:10D3D000678AE1EE858A42ED0D7AF0EE682AE1EE89
:10D3E000852A42ED0C8AF0EE625AE1EE855A42ED52
:10D3F0000B2AF0EE656AE1EE856A42ED0A5A42EDCB
:10D40000096AE1EE856A6DD05446F4EC013A42EDCA
:10D41000086A73EEE64AB4EE004AE4EE846A134604
:10D42000B0EE665AA4EE845A42ED076AF0EE45AAC1
:10D43000E4EE84AA02ED065AB0EE6A3AA4EE843A0B
:10D4400042ED05AAB0EE430AA4EE840A02ED043AC6
:10D45000F0EE400AE4EE840A02ED030AB0EE606AE0
:10D46000A4EE846A42ED020AB0EE461AA4EE841AD3
:10D4700002ED016A9AED017A77EE411A11EE100A77
:10D48000A1EE841A43F8200B04F1040AB0EE412AFD
:10D49000A1EE842AF24503F1200203ED071AF0EE13
:10D4A000427AE1EE847A03ED062AF0EE678AE1EE35
:10D4B000848A43ED057AF0EE682AE1EE842A43ED92
:10D4C000048AF0EE625AE1EE845A43ED032AF0EE4C
:10D4D000656AE1EE846A43ED025A43ED016AE1EECA
:10D4E000846A91D1089EC5ED006A002E00F0FB858C
:10D4F000D9ED016ADFED423A4249D9ED070AD9ED8B
:10D50000084AD9ED068A26EEA34ABDEEC45A15EEA6
:10D51000102A4FEA820C0CEB010B9BED003A9BEDBD
:10D52000010AF8EEC5AA30EE431A34EE6A6AA6EE96
:10D53000013A129DD9ED091A95ED002ADFED322A44
:10D54000059C0D9B0B9AB0EE007AF5EE007AE1EEA9
:10D55000A27A04F59E604146A2EE617A04F5A365C5
:10D5600004F21C5622EE271A67EE241A3AEE030A3A
:10D57000FFF7FCF80D9BD5ED007A96ED007A002BB5
:10D5800000F0C28105990B9A0F9CD2ED006A01F55B
:10D59000A26A01F21450DAED000AD0ED005AE7EE6B
:10D5A000207A944604F00303E5EEC76A04F1FF3BDA
:10D5B000ECEC017A76EEE73AA0EEA37A002C00F0CC
:10D5C0009880002B4DD0012B36D0022B22D00B9906
:10D5D000DAED004A90ED004A91ED015AE7EE247A27
:10D5E0000BF1FF3BA4EE475AECEC017A75EE67AA0B
:10D5F000A4EEAA7A0EE000BFA03701080000104296
:10D600000000804264A006089A99193E00000000BC
:10D610000AD7233C0BF1FF3B9AED003A90ED000A4C
:10D620009CED006AE7EE037AA0EE476AECEC017A23
:10D6300036EE671AA3EE017A0BF1FF3B9AED002A52
:10D64000D0ED001ADCED002AE7EE027A1BF10104AE
:10D65000E1EEC72AECEC017A72EEE70AA2EE207A3C
:10D6600047D0DAED003AD0ED005ADCED006AE7EE83
:10D67000237AE646ABF1040BE5EEC76A0CF1100C19
:10D680001BF10104EEEC017A36EEE74ADAED00AA6E
:10D69000D0ED004A1CED035A9EED013AA3EE847AC8
:10D6A000E7EE2A7AA4EEC75ACEED007A35EE670A85
:10D6B0009AED001A90ED006A1CED012AAAEE807A1C
:10D6C000E7EE017AA6EE473A4CED027A73EE671A5E
:10D6D000DAED000AD0ED002AA1EE217AE7EE207AF9
:10D6E000A2EEC72A4CED017A72EE673AA0EEA37A59
:10D6F000B7D10798079CDDF834C00B9AD0F834B541
:10D70000D0F830E5DDF80CA0C5ED007A04F5DA6359
:10D71000CDF8548000F5A665B84686ED007A6746D8
:10D7200002F120019C4605EB8E020EF17F0451F8B8
:10D73000206C966004F07F0EC2F8086205EB8E0341
:10D740000EF17F0051F81C6C9E6000F07F0EC3F854
:10D7500008620EF17F0305EB8E0403F07F0E51F893
:10D76000186CA6600EF17F02C4F8086202F07F0315
:10D7700005EB8E0451F8146CA66003F17F00C4F829
:10D78000086205EB830E00F07F0251F8106CCEF8B2
:10D79000086002F17F03CEF8086205EB820E03F009
:10D7A0007F0251F80C6CCEF8086002F17F00CEF8D1
:10D7B000086200F07F0005EB820251F8086C966069
:10D7C00000F17F04C2F8086204F07F0E05EB8002CE
:10D7D00010460EF1030451F8046C966005EB8404C6
:10D7E000C0F8086223460CEB8E06F3EC015A5FED9D
:10D7F000797A5A46B2EC017A301B0438B342A7F169
:10D800000807E5EE877AC0F3820071D0C8B301281B
:10D810002FD0022827D003281FD0042817D005288E
:10D820000FD0062807D0D4ED016A9BED014AE6EE41
:10D83000847A04330432F3EC014AB2EC015AE4EE88
:10D84000857AF3EC01AAB2EC013AEAEE837AB3EC02
:10D85000010AB2EC016AE0EE067AB3EC011AB2EC0E
:10D86000012AE1EE027AF3EC011AF2EC012AE1EE70
:10D87000A27AF3EC010AF2EC013AB342E0EEA37AA9
:10D8800036D01C461046F4EC01AAB0EC010AD3EDE8
:10D89000010A92ED011AD4ED011A90ED012AD3ED9F
:10D8A000032A92ED033AD3ED043A92ED044AD3ED04
:10D8B000054A92ED055AD3ED065A92ED066AD3ED6C
:10D8C000076A92ED077AEAEE807A2033B34202F1DA
:10D8D0002002E0EE817AE1EE827AE2EE837AE3EEF4
:10D8E000847AE4EE857AE5EE867AE6EE877AC8D128
:10D8F000EAEC017A2031002F7FF415AF079D4746EF
:10D90000DDF85480C5F830E50C9901F59C6EDEED2C
:10D91000007A002F00F0A88078EEE7AA1FEDC40A75
:10D92000039E299BD6ED000A049A049DEAEE807AB4
:10D93000B346C3EB020AAAF1040020EEA71AC0F313
:10D940008101ABEC011AD3ED001A31EE212AA3ECD0
:10D95000012AAB4200F08880E1B3012925D00229D9
:10D9600011D078EEE72A039E299A96ED013AE2EE6D
:10D97000807A63EE273AEBEC013A92ED014A73EEBE
:10D98000844AE3EC014A38EEE75A5FEDDF5A9BED3B
:10D99000006AE5EE257A26EE277AABEC017AD3ED24
:10D9A000006A77EE26AAE3EC01AA38EEE70ADFED7B
:10D9B000670A9BED001A0498E0EE207A61EE271AC0
:10D9C000EBEC011A93ED002A71EE822AE3EC012AB6
:10D9D000834249D0049CDFED5D3A9BED004A38EE6E
:10D9E000E73ADA46E3EE237A9C460BF1100B10334C
:10D9F00064EE274A38EEE75AEAEC014A53ED045A3E
:10DA000034EEA56AE5EE237AACEC016A1BED037AED
:10DA100067EE276A78EEE7AACAED006A13ED030AFB
:10DA200076EE800AEAEEA37ACCED000A9AED011AAE
:10DA300061EE271A38EEE72A4BED021ADCED012AD7
:10DA400031EEA23AE2EE237A03ED023A5BED013ABF
:10DA500023EEA74A0BED014A53ED014A34EE245A56
:10DA6000A34203ED015AB6D1D9ED0A8A069BCEED49
:10DA7000007AF6EE007AF4EEE78A03F64C5B03F5E3
:10DA80005566F1EE10FADBED006AD6ED00AA40F122
:10DA90006D82F1EE681A31EEA10A78EEA85AB7EE5F
:10DAA000002A72EE650A9FED2A1A002F00F002820A
:10DAB0000699039A069892ED003A039B01F64455A5
:10DAC000D5ED002A1099A2EEE63A00F5546E00F664
:10DAD0004854DEED003A94ED004AA6EEE33A01F038
